:100000008024002045110000AB6000003111000089
:10001000311100003111000031110000000000001A
:1000200000000000000000000000000009120000B5
:100030003111000000000000A91100003111000082
:10004000E5130000E5130000E5130000E5130000D0
:10005000E5130000E5130000E5130000E5130000C0
:10006000E5130000E5130000E5130000E5130000B0
:10007000E5130000E5130000E5130000E5130000A0
:10008000E5130000E5130000E5130000E513000090
:10009000E5130000E5130000E5130000E513000080
:1000A000E5130000E5130000E5130000E513000070
:1000B000E5130000E5130000E5130000E513000060
:1000C000E5130000E5130000E5130000E513000050
:1000D000E5130000E5130000E5130000E513000040
:1000E000E5130000E5130000E5130000E513000030
:1000F000E5130000E5130000E5130000E513000020
:1001000053B94AB9002908BF00281CBF4FF0FF317E
:100110004FF0FF3000F00CB8ADF1080C6DE904CEE3
:1001200000F008F8DDF804E0DDE9022304B07047D0
:10013000704700BF2DE9F04786468C460846089E6A
:10014000154674461946002B40F0C2808542B2FA2B
:1001500082F245D94AB1C2F1200300FA02FC2EFA1C
:1001600003F3954043EA0C0C94404FEA154EA8B2B5
:10017000BCFBFEF8230C0EFB18CC08FB00F943EA8D
:100180000C43994528D9EB1808F1FF3704D299455B
:1001900002D9A8F102072B44A3EB0903A4B2B3FBD5
:1001A000FEFC0EFB1C330CFB00F044EA0344A042AF
:1001B00014D92C190CF1FF3304D2A04202D9ACF1AE
:1001C00002032C44241A43EA07401EB1D440002302
:1001D00034607360BDE8F0874746DDE76346F1E7CA
:1001E00092BB431B01214FEA154EAFB2B3FBFEFC9D
:1001F000200C0EFB1C330CFB07F840EA0343984528
:1002000062D9EB180CF1FF3004D2984502D9ACF159
:1002100002002B44A3EB0803A4B2B3FBFEFC0EFBCD
:100220001C330CFB07F744EA0344A7424ED92C19B0
:100230000CF1FF3304D2A74202D9ACF102032C44E3
:10024000E41B43EA0040C0E7C2F1200320FA03F1B7
:10025000954090402EFA03F303434FEA154EAFB298
:10026000B1FBFEFC0EFB1C10190C0CFB07F841EA5D
:100270000041884504FA02F422D969180CF1FF30D4
:1002800004D2884502D9ACF102002944A1EB08014F
:100290009BB2B1FBFEFC0EFB1C110CFB07F743EA03
:1002A00001439F420ED9EB180CF1FF3104D29F425B
:1002B00002D9ACF102012B44DB1B41EA004192E779
:1002C0006046E3E76146F7E76046A3E76346B7E7C2
:1002D000834206D916B9002108467BE7C6E900E04B
:1002E000F9E7B3FA83F78FB9834201D3724508D88F
:1002F000BEEB020460EB030301209C461EB9002103
:1003000068E73846FAE7C6E9004CF8E7C7F1200C81
:10031000BB4022FA0CF41C432EFA0CF120FA0CF329
:10032000B84001434FEA14490EFA07F5B3FBF9F858
:100330001FFA84FE09FB18300B0C08FB0EFA43EA87
:1003400000439A4502FA07F240D9E31808F1FF305A
:1003500004D29A4502D9A8F102002344A3EB0A0370
:1003600089B2B3FBF9F809FB183308FB0EFE41EA2A
:1003700003418E452CD9611808F1FF3304D28E4514
:1003800002D9A8F10203214443EA0040A0FB0298ED
:10039000A1EB0E014145CE46434602D306D14D4561
:1003A00004D2B9EB020E68EB04030138002EA6D08C
:1003B000B5EB0E0261EB030101FA0CFC22FA07F324
:1003C0004CEA0303F940C6E9003198E74046C5E727
:1003D0004346D9E770B5094E094D4FF0FF334FF052
:1003E000FF32304603F09CFCD0E901120446284657
:1003F00005F0C7FD204606F0E1F8EEE78405002091
:10040000146B00002DE9F04F054685B000680E46DC
:10041000904606F017F82B6830B91968594805B0AE
:10042000BDE8F04F05F0ADBDEF88297947F4003203
:1004300007F03004302CD3E9010ED3F810C00ED1F0
:100440005149524A524840F2E23305F0B0FD51485A
:1004500005F0ADFD40F2E2314C4805F09FFD07F09C
:100460000604042C09D14C49484A494840F2E93372
:1004700005F09DFD40F2E931EEE7006801248C4073
:1004800004420CD14549414A41484FF47F7305F07D
:100490008EFD434805F08BFD4FF47F71DCE7DCF8FF
:1004A0000000FF074CBF2043A043CCF80000DEF85B
:1004B00000401846A047044668BB26EAE6764FF49B
:1004C000004740F2E7302146C6FB07014FF47A723D
:1004D0000023FFF715FEDFF8CC9007460E464FF0DD
:1004E000010AA346286829794268D0F810C012682A
:1004F0000AFA01F1114204F0010315D12749234AF8
:10050000234840F28D6305F052FD254805F04FFD6C
:1005100040F28D61A0E701462B7A2A79224805B086
:10052000BDE8F04F05F02DBDDCF80020114218BFEA
:1005300083F001039BB18368DB6898470C20CDE909
:1005400001B8039405F00AF9034658B91749104851
:10055000174A4F2305F02BFD15484F217DE783688F
:100560001B69EAE701AA03CA18601068596098601D
:100570001946484605F0A4FF3846314604F020FBF2
:100580000134AFE72F6B00007F6B00004E6B000063
:10059000B86B0000D56B0000126C0000456C0000C9
:1005A000836C000084050020956C0000E26C000064
:1005B000C66C0000024800226421FFF723BF00BF81
:1005C000346A0000024801224FF47A71FFF71ABF23
:1005D000286A000070B50C46002934D002680B1F51
:1005E0009B1AD90823F0070313445D88E8070DD44C
:1005F000154A16491648AF2305F0D9FC214615487F
:1006000005F0D5FCAF21104805F0C8FC104605F0F8
:100610009CFB084432F83060801B81420BD00A4AB0
:100620000D490B48B72305F0C2FC21460B4805F0E5
:10063000BEFCB721E7E725F001055D80BDE870400D
:10064000104605F03FBC70BD0F6D0000326D00001C
:10065000B86B0000436D00007B6D0000A16D0000D1
:10066000B2F5802F2DE9F0410ED33C493C4A3D487C
:1006700040F2152305F09BFC3B4805F098FC40F246
:100680001521374805F08AFC042A0CD83749344A2A
:1006900034484FF4077305F08AFC354805F087FCB1
:1006A0004FF40771EDE7043ACD1D8E1825F00705CC
:1006B00026F00706761B172E4FEAD6070CD82D49D1
:1006C000274A284840F2252305F071FC284805F008
:1006D0006EFC40F22521D4E7B7FA87F4C4F120027A
:1006E000C4F12404A4000734E408631C4FF000089C
:1006F000BB420560AF60C5F80C800CD91E49184A92
:10070000184840F23A2305F052FC194805F04FFC16
:1007100040F23A21B5E74146920005F1100005F09C
:100720006FFF630043F001036B8005EBC4023B1BCA
:100730005900A5F800805180AA1925F83440A2F884
:100740000280AB5305EBC70321465A8842F00102F1
:100750005A802846BDE8F04105F0FCBADD6D000086
:100760000F6D0000B86B0000F36D00000A6E000012
:100770002B6E0000446E00006D6E0000014B1B6884
:10078000184700BFC0040020014B1860704700BF2D
:10079000C004002030B585B004460D46102200216B
:1007A000684605F02DFF02238DF802302A46044BDF
:1007B00001932146684605F06BF805B030BD00BFD7
:1007C0007D07000080B505460E461746984604F0A2
:1007D00093FA034605F080FFDFF81890044649F8C5
:1007E0000030424630463946A84754F8090000F028
:1007F000C5FC00BF080000002DE9F84F044608467C
:10080000A38B1907154612D4022803F0070165D1FE
:10081000204605F0D9FB88B10138042800F2378161
:10082000DFE810F05C0035018200D40004010128EB
:100830000CBF43F0100143F02001A1831434204683
:1008400004F06AFC002840F09D819A499A4A9B482E
:1008500040F2311305F0ABFB2146B1E003F0070293
:10086000501F01281ED80020062A2768C4E900006E
:1008700014D13A4603E0E08B0130E0831268002A8D
:10088000F9D123F0070343F00202A283204605F0CA
:100890009BFB90B342F02002A2832EE023F00703DB
:1008A0009AB2F2E7042A33D123F007039AB2A28363
:1008B000204605F089FB10B142F02002A283A38BF1
:1008C00003F00709894540F0EC80A18BCA0640F18E
:1008D000508121F01003A38301F00701D4F81880A0
:1008E000A38BB8F1000FB9DA0022276823F00703C1
:1008F000C4E9002243F00103A383A38B03F007099B
:10090000894540F0CF80002FDFD00026B24644E07A
:100910006B496C4A694840F21B1305F048FB40F2F2
:100920001B11684805F03AFB49B16749654A6348BD
:100930004FF4AB7305F03BFB4FF4AB71F1E7236869
:100940004BB962495F4A5D4840F2571305F02FFBEF
:1009500040F25711E5E723691E684EB95C49594AD0
:1009600056484FF4AD7305F022FB4FF4AD71D8E754
:10097000A38B23F0070343F006039BB2A3830F4628
:1009800088464FF00609A268002A40F08D80002FAB
:1009900040F08D80002E98D0BA4643F0080304F151
:1009A000140BA383584604F0B7FB002840F09A804C
:1009B0004049414A414840F2311305F0F8FA59469E
:1009C000444805F0F4FA40F23111ADE0022909D0B3
:1009D00041493C4A394840F25D1305F0E8FA40F2DB
:1009E0005D119EE7E78B4FB13C49364A33484FF4DF
:1009F000AF7305F0DCFA4FF4AF7192E723695E68DC
:100A00004EB933492F4A2D4840F2611305F0CFFA11
:100A100040F2611185E7A38B23F0070343F0040341
:100A20009BB2A383B8464FF00409ACE7012909D073
:100A30002B49244A21484FF4B27305F0B8FA4FF419
:100A4000B2716EE723684BB920491E4A1B4840F239
:100A5000651305F0ACFA40F2651162E723699E6800
:100A60004EB91B49174A15484FF4B47305F09FFA65
:100A70004FF4B47155E7A38B23F0070343F005034C
:100A80009BB20027A383B8464FF005097BE70C49CA
:100A90000C4A0A4840F26B1305F089FA40F26B11D8
:100AA0003FE7002700266EE74FF0010A75E7924600
:100AB00073E700BF6B6F00003E6F0000B86B000073
:100AC000ED6C0000986E0000BD6E0000C96E000065
:100AD000EC6E0000826F0000036F0000196F0000D1
:100AE000286F000085F31188BFF36F8FBAF1000FF4
:100AF0001CD177BB16B126492046B047EFF31185CC
:100B0000202383F31288BFF36F8F584604F0F6FA60
:100B100038BB204A20492148882305F048FA594625
:100B20001F4805F044FA88211A48FBE6A16800290D
:100B3000DFD00D680029DCD0D1F804A043464A4636
:100B40002046D0471DB12B6829461D46F2E72B46AB
:100B5000FAE7394643464A4620463F6805F060FAC0
:100B6000C7E7584604F0EEFAA38B23F00803A383EB
:100B7000ABE68B067FF562AE21F02003A38301F084
:100B8000070145E685F31188BFF36F8FBDE8F88F45
:100B9000A50B00003E6F0000976F0000B86B0000CF
:100BA000AC6F0000F8B504460D4600F11406EFF3F3
:100BB0001187202383F31288BFF36F8F304604F030
:100BC0009DFA68B90C4A0D490D48882305F0EFF9E4
:100BD0000C48314605F0EBF90748882105F0DEF9AD
:100BE000304604F0AFFAA5613A4620460121BDE83F
:100BF000F840FFF701BE00BF3E6F0000976F000096
:100C0000B86B0000AC6F00002DE9F04704460F46BA
:100C100005F0F6F9051E68DB04F11409EFF3118AFB
:100C2000202383F31288BFF36F8F484604F066FADF
:100C3000804660B9384A39493948882305F0B7F900
:100C40004946384805F0B3F98821334842E0484620
:100C500004F078FAE38BA68B4FF6FF72934206F00E
:100C6000070645D0022E15D10133E38335464846A9
:100C700004F052FA002841D1274A2B49284840F273
:100C8000311305F094F94946284805F090F940F2EF
:100C90003111DAE7062E13D8DFE806F0092D12121B
:100CA000090409006FF085054FF00008DFE7002315
:100CB0003B60636883B9C4E9007786B13546F3E7E2
:100CC0001B4917481B4A4FF4E47305F070F91948A3
:100CD0004FF4E47105F062F91F606760EDE752467A
:100CE00002212046FFF788FD35462846BDE8F087FB
:100CF0006FF00A05D8E76FF00405D5E78AF311888D
:100D0000BFF36F8FB8F1000FEFD0002332463946A2
:100D1000204605F085F9E8E73E6F0000976F000078
:100D2000B86B0000AC6F00006B6F0000826F0000BA
:100D3000286F0000986E000008B54268816002F0DC
:100D40000302032A034602D02AB1002000E0006813
:100D500000225A6008BD05490548064A452305F0AA
:100D600026F90448452105F019F900BFED6C000093
:100D7000B86B0000C26F0000014B03600020704799
:100D8000406A000030BFFFF7FDBF00BF2DE9F04112
:100D90000B4EDFF8308006EB0807CC1B05463246C9
:100DA0000949204605F01EFCA01942460021083CD6
:100DB00005F026FC2C6707F10800BDE8F08100BFB4
:100DC00000000000040000001C6A0000054B5A6986
:100DD0009B689A421FBF044A536843F08053536094
:100DE000704700BFA009002000ED00E0F8B52F4BD0
:100DF00015469A6A12F0100F9A6A14BF1124102433
:100E000012F0080F9A6A18BF1224970706460AD5EF
:100E1000586B9A6A140634D519B19A6A22F0800286
:100E20009A62132401E06FF01500204B9A6A12F0C9
:100E3000010F9A6A18BF142412F0200F9A6A18BF83
:100E40001524D10602D49B6A9A070AD5174F7B68EE
:100E50001B0506D5314600F07FFAA8B180F309885A
:100E60000224124B9A6A920642BF5A6A22F4005236
:100E70005A629A6A42F0FF029A6200232B7020465F
:100E8000F8BD6FF01500CCE7BB6AD906E9D5084973
:100E9000084A09484FF4927305F089F8074805F0AD
:100EA00086F804484FF4927105F078F800ED00E000
:100EB0001A700000E86F0000B86B0000647000005A
:100EC000134B9A6A12F0007F9A6A14BF1E201D20ED
:100ED00012F0807F9A6A18BF1F2012F4002F9A6ABE
:100EE00018BF212012F4802F9A6A18BF222012F412
:100EF000003F9A6A18BF232012F4803F9A6A6FEA73
:100F000002426FEA12429A6218BF2420704700BF63
:100F100000ED00E010B5194B0246986A9C6A10F487
:100F2000805F14BF1720162014F4006F9C6A18BF4E
:100F30001820A40509D5986B986A000404D51AB145
:100F40009A6A22F400429A6219200C4B9A6A12F4AF
:100F5000806F9A6A18BF1A20D2050CD49B6A13F4CA
:100F6000005F18BF1C20054A936A43F47F439362D5
:100F700000230B7010BD1B20F5E700BF00ED00E063
:100F8000F0B55D4B5B688BB00446C3F308030025E6
:100F900085F31188BFF36F8F02F07F40B0F17F4F70
:100FA00008D102F00C00082804D012074CBF0C46F0
:100FB000012574B95149524A524840F2114304F094
:100FC000F6FF514804F0F3FF40F211414C4804F0A1
:100FD000E5FF0022033B8DF80720032B00F28480FD
:100FE000DFE803F0027A7E5D434AD36A13F002031E
:100FF0007AD1D16A00291ADBD36A5B005FD55369C5
:10100000A16943F480735361BFF34F8FBFF36F8FB8
:10101000536931F8021C23F480735361BFF34F8F7F
:10102000BFF36F8F4DF6027399421FD123689DF86D
:101030000720CAB902AE04F1200720686168324671
:1010400003C20834BC421646F7D1099A002D4DD090
:10105000C2F3080121B96FEA52226FEA42220992D3
:1010600002A9184605F017F80BB0F0BD936ADBB281
:101070003BB10DF1070201212046FFF7B7FE034601
:10108000D5E7936A13F47F4F05D00DF107010120D6
:10109000FFF740FFF3E7936AB3F5803F02D3FFF712
:1010A0000FFFECE71949164A164840F2EA2304F00C
:1010B0007EFF174804F07BFF40F2EA2186E71349E0
:1010C0000F4A104840F2ED2304F071FF114804F07C
:1010D0006EFF40F2ED2179E70DF107020021CBE729
:1010E0000DF107010020D3E70023A0E722F4FF72EF
:1010F00022F00102B3E700BF00ED00E087700000BE
:10110000E86F0000B86B00009A700000ED6C000002
:10111000D8700000FC700000044B5A6942F01002C5
:101120005A615A6922F008025A61704700ED00E0E6
:10113000EFF30880EFF3098101B57246FFF720FF56
:1011400001BD00BF0B4880F3088801F0B5FB2020EB
:1011500080F3118808484FF40461401880F309882F
:10116000EFF314800221084380F31488BFF36F8FDC
:1011700000F0BAF880240020C0160020084B9B68BD
:1011800083420BD1EFF3058343B1064B5A6842F01B
:1011900080525A605A6A22F400425A6203F0B2BD89
:1011A000A009002000ED00E014498A684FF03000EB
:1011B0001044EFF3098C80E8F01F202080F31288A0
:1011C000BFF36F8F0E4F4FF000664A698A603E6032
:1011D000106F0C4C2060506F0023536780F3118810
:1011E00004B5104600F01CF9BDE8044002F13000DF
:1011F00090E8F01F8CF3098870470000A0090020D8
:1012000004ED00E0D80800201EF0040F0CBFEFF33F
:101210000880EFF30980816911F8021C0229FFD0D0
:1012200001B5724604F03DFF01BD00BF40B2002889
:1012300007DB044A4109012300F01F00834042F804
:101240002130704700E100E0054B420900F01F002B
:1012500053F82220012303FA00F01040704700BF2A
:1012600000E100E038B54B1C072B04460D460FD9B2
:10127000114A124912486B2304F099FE114829467D
:101280000723224604F093FE0B486B2104F086FEF0
:1012900040B20028ACBF00F160400B4A4FEA431354
:1012A000B8BF00F00F00DBB2AABF00F561401354D5
:1012B00080F8003338BD00BF2C710000637100005E
:1012C000B86B00007E71000014ED00E0044B054A8D
:1012D00023F07F039360BFF34F8FBFF36F8F70478F
:1012E0000000000000ED00E008B5FFF7EFFF0B4A3B
:1012F000D2F8883023F47003C2F88830EFF31483F7
:1013000023F0040383F31488BFF36F8F02F05AFBBA
:1013100003F020FF00F05AF802F098FB00ED00E027
:1013200042F8203C009B42F81C3C0A49019B42F8D1
:10133000183C029B42F8143C21F001014FF08073ED
:1013400042F8043C42F8081C0023203A0265436737
:10135000704700BFC5070000094A0346906870B196
:1013600013F1160F006E05D0A0F140029A4205D885
:10137000834203D2814228BF00207047002070477B
:10138000A009002008B51546094A0A4B9060026F73
:101390001A600E4600F044F82C4686F309880020B7
:1013A000054B98472046002100220023034C20478C
:1013B000A0090020D8080020C1600000C507000077
:1013C000014B10221A61704700ED00E00448002331
:1013D0002021C2180133302B82F80013F9D1704755
:1013E00000E100E008B5EFF30583064A103B02EB8D
:1013F000C30152F8330049688847BDE80840FFF749
:10140000E5BC00BFBC670000024B034A0348012152
:1014100000F076B80000042000000020406A0000C0
:10142000026E054B403A1A60044A4021C3E901129A
:101430001846012100F08AB8DC08002000000B15D6
:10144000084AC2F898000B6823F01F03034343F0D7
:101450001003C2F89C308B6843F00103C2F8A0303F
:10146000704700BF00ED00E02DE9F043DFF8608039
:1014700085B00E461F4604464FF00009B14523DAF9
:101480006068D8B13FB1411E08421BD11F2819D94D
:101490002368194216D12368019304F034FEA3682F
:1014A00003430393D8F89050C5F30725D0B2013D0C
:1014B000A84207D801A9FFF7C3FF421C09F101099F
:1014C0000C34DBE76FF01502104605B0BDE8F08381
:1014D00000ED00E0044B0522C3F89420BFF34F8FCA
:1014E000BFF36F8F704700BF00ED00E0BFF35F8F69
:1014F000024B0022C3F89420704700BF00ED00E0CB
:1015000038B50D4D01232A780C46FFF7ADFF287042
:1015100016300FD1094A0A490A484FF4BB7304F048
:1015200046FD0948214604F042FD04484FF4BB71D2
:1015300004F034FD38BD00BFDC090020BE7100009E
:10154000ED6C0000B86B0000ED71000010B5144A9E
:10155000002312780C46FFF787FF10F1160F08D012
:10156000104A0021D2F89030C3F30723984210DBD1
:1015700010BD0D4A0D490E4840F2951304F017FDB9
:101580000C48214604F013FD074840F2951104F081
:1015900005FDC2F89800C2F8A0100130E2E700BFD4
:1015A000DC09002000ED00E0BE710000ED6C0000E1
:1015B000B86B0000197200002DE9F04F774E784C9F
:1015C000D6F890302568C3F307239D4285B013D920
:1015D000744A7549754840F2AD1304F0E8FCD6F83A
:1015E000902073482946C2F3072204F0E0FC40F241
:1015F000AD116C4804F0D2FCFFF778FF00200C26F8
:1016000085422DD16B4C6C4F25706846FFF7B4FBBB
:10161000DFF88881DFF8A49106460025AE4226D186
:1016200023785E490020D1F89020C2F3072293422C
:10163000C0F2AA80FFF74EFFD1F89030C3F3072322
:10164000082B00F0A7805E49564A584840F21F23F5
:1016500004F0ADFC5B4804F0AAFC40F21F21C8E78F
:10166000616806FB0011FFF7EBFE0130C8E7009A46
:1016700002EB05132901D3F80CA00AEA0700B0F524
:10168000000F64D00AD8B0F5001F3AD0B0F5800F33
:1016900050D0B0F5801F12D00135BFE7B0F1807F88
:1016A00060D0B0F1007FF7D19868D3F804A0525809
:1016B00004F029FDCDE901A240F480200BE09868F8
:1016C000D3F804A0525804F01EFDCDE901A240F069
:1016D000885040F430200390D8F890302078C3F33D
:1016E0000723013B984248D92F492E4A2F4840F200
:1016F000D71304F05CFC344804F059FC40F2D711D5
:1017000077E79868D3F804B0525804F0FCFC1AF05C
:10171000010F40EA0900CDE901B20390DCD02B496A
:10172000204A22487B2304F042FC294804F03FFC75
:101730007B215EE79868D3F804A0525804F0E3FCDC
:1017400040F0E060CDE901A240F40030C3E79868C2
:10175000D3F804A0525804F0D6FCCDE901A240F021
:101760008270B8E79868D3F804A0525804F0CBFC14
:10177000CDE901A240F08870ADE701A9FFF760FE56
:1017800023780133237087E7C1F89830C1F8A000AF
:10179000013348E7002005B0BDE8F08F00ED00E020
:1017A0004C6A0000BE710000ED6C0000B86B0000D8
:1017B00046720000DC0900200000F0FF0000081164
:1017C000F972000049730000CF7200007A720000C5
:1017D000A072000008B5024B1B689847002008BDA6
:1017E000E8080020034B044A1860937843F0020392
:1017F00093707047E8080020C404002008B506492B
:10180000064821F00701C1F1005202F58022FEF7DF
:1018100027FF002008BD00BFC7250020EC080020DE
:101820000E4A0123C2F840354FF080424FF08051FC
:10183000C2F87835D1F83001082808D1D1F8341130
:10184000052904D80648415C09B1C2F838364FF082
:1018500080430122C3F880250020704700E001404A
:101860007973000020B1034B800143F00103184756
:10187000704700BF206A000037B50C460A490B4A82
:10188000411A40230093491105462346084804F0B5
:101890004FFC011E05DA2846234603B0BDE8304060
:1018A000184703B030BD00BF0C0900209B61000049
:1018B0003C670000C9B2012908B509D9084909489F
:1018C000094A7F2304F073FB07487F2104F066FB7D
:1018D00003690C2201FB0233986C00F0070008BD7D
:1018E000BC730000B86B00007F73000070B5C9B214
:1018F000012903690BD9194919481A4A4FF4DF73B2
:1019000004F055FB17484FF4DF7104F047FBEFF389
:101910001185202484F31288BFF36F8F0C2606FBF9
:101920000134A46C14F0C00408D0A24206D085F3A0
:101930001188BFF36F8F4FF0FF3070BD06FB01338E
:1019400001229A6485F31188BFF36F8F436803EB1C
:10195000C1035B6898470020EFE700BFBC7300003D
:10196000B86B00007F73000070B50D460649411A40
:101970000446491105484022FFF7B8FF2B460146AF
:101980002046BDE8704018470C0900203C67000065
:10199000002270B5012104461046FFF763FC0F4892
:1019A00001F02CF90E4B984215D101F037F9266958
:1019B0000C49304604F04AFB00280BDB0125B564D6
:1019C0002469084904F1200004F040FB002801DBF1
:1019D0006565002070BD6FF00400FBE79D1A0000F4
:1019E0000000AD0B6C6A00001FB500220123CDE999
:1019F0000223094ACDF800D06B46CDF804D004F09C
:101A0000C5FB002805DB4FF480420023684602F046
:101A10008DFA05B05DF804FBB361000010B5EFF37B
:101A20001184202383F31288BFF36F8F074A136852
:101A300023F00201DB07116002D4012001F086F9D6
:101A400084F31188BFF36F8F10BD00BF64090020BD
:101A500030B4104B0C2202FB003301460020D3E9C6
:101A600010521864EFF31180202484F31288BFF31E
:101A70006F8F9C6C04F0C00444F002049C6480F3FB
:101A80001188BFF36F8F1DB12B46034830BC184738
:101A900030BC70470C0900203C670000012808B5E5
:101AA00006D0032808D098B90F4B9B6C5B0719D15F
:101AB000BDE80840FFF7CCBF0C490D4A0D484FF474
:101AC000347304F074FA4FF43471094804F066FA80
:101AD0000649074A074840F2E12304F068FA40F259
:101AE000E121F2E708BD00BF0C090020ED6C000009
:101AF0007F730000B86B000010B4EFF31182202355
:101B000083F31288BFF36F8F1748016841F0020416
:101B10000460C80707D482F31188BFF36F8F0120D8
:101B200010BC01F0A1B84FF08041D1F80C04D1F8FD
:101B30000C14C907EFD5EFF3118083F31288BFF3BC
:101B40006F8F0A498B6C03F0C00343F002038B6470
:101B500080F31188BFF36F8F82F31188BFF36F8F0B
:101B6000002010BCFFF774BF640900200C0900209E
:101B70002DE9F0414449BFF35B8F0646012251E84D
:101B8000003F41E800200028F9D1BFF35B8FA3B9E3
:101B90003E493F484B60CB608A60FFF735F800282C
:101BA0000BDA3C493C4A3D4840F2912304F0FFF9EE
:101BB00040F29121384804F0F1F976B3731E012BFD
:101BC00058D8012E07D14FF08043D3F81C3403F0CE
:101BD0000303012B21D004F07EFC0546F8B9304BFD
:101BE0001B78E3B14FF080430222C3F80823074675
:101BF000DFF8B0804FF08044D4F81824D4F81834BB
:101C0000D20315D503F00303012B01D0012E0FD110
:101C100055B387F31188BFF36F8FBDE8F081EFF301
:101C20001187202383F31288BFF36F8F0125DFE72D
:101C3000ADB1384604F058FAD4F81835002BDBD192
:101C4000D4F80421002AD7D0C4F80431D4F80431E0
:101C50000123C4F81835C8F88031A360CCE700210F
:101C6000212002F0ADFFE7E74FF080430222C3F8E6
:101C70000423D2E70C49084A084840F2A32304F0A1
:101C800096F940F2A32195E708090020F808002002
:101C90002C090020E07300007F730000B86B000087
:101CA000DF09002000E100E0ED6C000008B5074806
:101CB00004F0C8FB38B10648FFF794FD0448FEF76E
:101CC00063FD002008BD6FF01200FBE79C67000079
:101CD000D51C00000A2838B5074D044604D1AB686E
:101CE0000D215B6828469847AB6803485B68E1B202
:101CF0009847204638BD00BF9C67000010B50369B7
:101D000061B92049204A21483F2304F050F9204876
:101D100004F04DF93F211C4804F040F9486850B9DF
:101D20001C49194A1948402304F041F91A4804F0A3
:101D30003EF94021EFE75868F8B1884219D19C6814
:101D400008685860A14200D19860002008602AB15C
:101D50005A680A609A68596002B99960002010E0D8
:101D6000814206D10868206098688142EDD19C606C
:101D7000EBE7044600680028F2D1002AE8D16FF0B2
:101D8000150010BD34740000F8730000B86B00003B
:101D90003D7400004C7400005E74000038B5456866
:101DA0002B69B3B11035284601F052FB044680B9C7
:101DB0000146284601F012FB084B98420BD1084916
:101DC0002246284601F0D8FA224605210620FFF7D0
:101DD00049FA002038BD6FF00400FBE70000AD0BAE
:101DE000C120000008B503685909024614D0012932
:101DF00006D103F01F034FF6FF71D940C80713D473
:101E00000B490C480C4A40F2B93304F0D0F80A48A8
:101E100040F2B93104F0C2F84FF0FF31D940C907A0
:101E2000EED54FF0A04000E00448136008BD00BFAD
:101E3000A8740000B86B0000757400000003005027
:101E4000F0B54068057B01F01F0444EA45140569BC
:101E500087B0002D5CD0B2F5001F00F1100506D14F
:101E60002146284604F0E3FA002007B0F0BD01AE99
:101E70000027B2F5800F0197776034D1B3F1007F6E
:101E800014BF052304238DF804300023CDE9046337
:101E900003938368CB40D90717D4B2F1A07F14D144
:101EA00068460094FFF79EFF009B03F5E07350F82F
:101EB0002330DB0709D46A462146284601F062FA3E
:101EC000164B98421AD0CDF808D003AA21462846CE
:101ED00001F022F9124B98421DD1012221462846D9
:101EE00001F0CCFAC0E7B3F1C06F05D0B3F1007FC9
:101EF00014BF01230223C6E70323C4E7694628462B
:101F000001F0B6FA064B9842DDD06FF00B00ACE75B
:101F10006FF08500A9E76FF01500A6E70400AD0B90
:101F20000000AD0B2DE9F043466840F20635337BE7
:101F3000D00687B001F01F0702EA050547EA4317FC
:101F400054BFC2F340130323B5F5837F14468DF8C5
:101F5000033045D00FD8062D18D007D8B5B1022DC3
:101F600040D06FF0150007B0BDE8F083B5F5807F75
:101F7000F7D101250AE040F20222954234D0B5F5AE
:101F8000407F33D0B5F5007FEBD10225012322033A
:101F900003FA01F12CD57368C3F8081533696BBBDC
:101FA00003A80397FFF71EFF039B00EB830084F455
:101FB0008033C3F30043C4F34044D0F8002744EA1D
:101FC00043049DF8033022F4E16244EA830422F0E2
:101FD000070244EA05231343C0F800370020C2E794
:101FE0000725D3E70425D1E70525CFE70325CDE76E
:101FF000630344BF7368C3F80C15CFE710360DF1C7
:1020000002023946304601F0BDF914F4403F8046E3
:1020100017D13946304604F008FA254B9845DDD1F2
:102020009DF80210304601F01DFA4045D6D02149F6
:102030002148224AEC2303F0BAFF2048EC2103F0A8
:10204000ADFF01AB4FF0000903AA39463046CDE998
:102050000439CDE90199CDF80C9001F05DF8144BED
:1020600098427FF47EAF14F4003315D09DF803300E
:102070008DF80E3084F48034C4F300444B4603AA38
:10208000394630468DF80C508DF80D4001F0F8F8C7
:10209000074B9842C1D064E7CDE9043303AA0DF1A0
:1020A000030339463046039301F036F8F0E700BFEA
:1020B0000000AD0BF7740000B86B0000CB7400009B
:1020C000420970B5034602D0012A1ED070BD144EDD
:1020D000326951680029F9D003F01F0301250C680B
:1020E0009D400029F2D08A682A4012D04B6873B90B
:1020F0000C490D4A0D48642303F059FF0C4803F0C6
:1021000056FF0948642103F049FF0A4EE0E73046D4
:1021100098471CB1236821461C46E2E72346FAE7AC
:102120007C6700000B750000F8730000B86B0000BE
:102130005E7400005C67000008B503685909024638
:1021400014D0012906D103F01F034FF6FF71D940C7
:10215000C80713D40B490C480C4A40F2B93303F0BA
:1021600026FF0A4840F2B93103F018FF4FF0FF3163
:10217000D940C907EED54FF0A04000E004481360F5
:1021800008BD00BFA8740000B86B000075740000A3
:10219000000300502DE9F04FDFF890B185B01546EF
:1021A000824600EB810840F2FF19D04503D10020A0
:1021B00005B0BDE8F08FDAF800305804C3F3C3214E
:1021C000C3F3080400F1AC80594A1B0E575C4C4520
:1021D00008BF4FF0FF34222B00F2A580DFE803F0A8
:1021E00012191F22252B22A3A3A3A33B68A3A3A3F9
:1021F000A3A3A3A3A3A36B818487A3A3A38A91947E
:10220000979A9D00C5F80C45621C5ED10AF1040A3C
:10221000CBE7C5F81445631CF8D000265FE0C5F88D
:102220000845F1E7C5F81045F5E7661CC5F808450F
:10223000ECD0002604E0601CC5F80C45E6D0012671
:1022400003A80394FFF778FF039B012101FA03F32E
:10225000C0F80C3508E0C5F80845002FDBD1631C39
:10226000D4D0002631460627DAF80030019303F473
:102270000040002818BF002103A8009118BF0126C4
:102280000394FFF759FF039C019B009900EB840026
:10229000C3F3412CD0F800473B0243EA8C030B43C5
:1022A00004EA0B04234343EA4603C0F80037ADE7D2
:1022B000C5F80C45D1E7C5F86045611CDAF8003077
:1022C000A4D0C3F30043002BB9D003A80394FFF7B5
:1022D00033FF039B012606FA03F3C0F808353146A5
:1022E000C2E7C5F86445E8E7C5F86845E5E7C5F81D
:1022F0006C45E2E7C5F82445621C87D00021012621
:10230000B2E7C5F828457FE7C5F83045F4E7C5F8DA
:102310003445F1E7C5F83845EEE7C5F83C4573E7C5
:102320006FF0150044E76FF0850041E7F0F8FCFF1F
:10233000337500002DE9F041044647680D4604F06E
:10234000CAF84FF0200888B9264B1B7873B1642671
:10235000606803F08DFFF0B9012003F0BBFF013E80
:10236000F6D10021212002F02BFCF0E7EFF31186DB
:10237000314688F31288BFF36F8F606803F078FFEF
:10238000A8B986F31188BFF36F8FEFE786F3118842
:10239000BFF36F8FE5E7EFF31186314688F31288BC
:1023A000BFF36F8F606803F063FF0028EED0BB6956
:1023B0001D706368BA691B680020C3F844250122B8
:1023C000C3F84825C3F82001D3F82041C3F85801C9
:1023D000D3F858019A6081F31188BFF36F8FBDE87D
:1023E000F08100BFDF090020F7B50546002201217A
:1023F0000220FEF737FF0220FEF718FF6A68116817
:102400001369C1F82435137D507D927D0343134336
:10241000C1F86C356E68D6E9004313F0010348D06B
:102420002F6907F1080003F061FF304B98425AD141
:10243000387A04F10C0204F5907103F04DFF387AFC
:10244000012707FA00F000F059FB0823C4F8003513
:10245000B369C4F844350023C4F84835A760D4F8FC
:102460005831002BFBD00021C4F800156B68DC68E4
:1024700001AA204603F0CFFE002805DB019B22685D
:1024800019791868FFF786FE6A6813680821C3F88F
:102490000015117A51B9D269C3F834250122C3F865
:1024A0003825C3F81011D3F810111A60002003B0BA
:1024B000F0BD0822C4F80025B269C4F84425C4F868
:1024C00048350123A360D4F82031002BFBD0002332
:1024D000C4F82031D4F820310123E3604FF4807335
:1024E000C4F80433BBE76FF00400E0E70000AD0B75
:1024F00070B40E49D1E90034D01AC31844F1000475
:1025000022F07F46C1E90034A6F50013B3F5400F71
:1025100009D2074B1B681A0A1B069C19054B42F18E
:102520000005C3E9004570BC02F08ABF28070020FF
:1025300094090020300700200D4B1868010A00069E
:10254000BFF35F8F0B4BD3F80435181841F100012E
:10255000B3F5801F0AD2084BD3E90023904271EBF8
:10256000030303D210F1807041F10001704700BFF6
:102570009409002000100140300700202DE9F743A6
:102580002F4CD4F8043399070BD5D4F8043143B158
:102590002C4A0023C4F80431D4F804311368013301
:1025A0001360D4F80433DA0329D5BFF35B8F264BCD
:1025B00053E8002F22F0010143E800100028F7D172
:1025C000BFF35B8FD30702D4D4F84031BBB10025F1
:1025D000C4F84051D4F84031FFF7AEFFEFF3118259
:1025E000202383F31288BFF36F8F184BD3E9026760
:1025F000B042B94106D282F31188BFF36F8F03B0A6
:10260000BDE8F0834FF0FF384FF0FF39C3E902898E
:10261000D3E900101D604FF48033C4F84833C4F888
:102620004051D4F8403182F31188BFF36F8F0029F5
:10263000E5D0009032463B4628468847DFE700BF9A
:1026400000100140940900208C0900201807002088
:102650002DE9F84F4B4DBFF35B8F06460F4655E80B
:10266000008F28F0010345E80032002AF7D1BFF3BC
:102670005B8F454C4FF48039C4F80893BFF35F8FEC
:10268000BFF36F8FFFF758FFB04271EB070308F0FD
:10269000010840D23D4B301A67EB0101984271F1BD
:1026A00000014CD23A4BD3E902239F4208BF964225
:1026B0003ED04FF0000CC4F84893C4F840C126F057
:1026C0007F40D4F84031DFF8CCA0834603216FF07F
:1026D000020E2BF07F43C4F84035C4F84493D4F87D
:1026E0000425AEEB02035B4423F07F4353451FD91F
:1026F000D4F840315BB1D4F80425131A23F07F439A
:10270000B3F5000F14D9C4F840C1D4F8403101EB3F
:10271000020B0131DDE7204BBFF35B8F53E8001F55
:1027200041F0010143E80012002AF7D1BFF35B8FAB
:10273000174B1A4A1A60C3E9026700225A60B8F1BF
:10274000000F1CD0BFF35B8F55E8003F43F001033F
:1027500045E80032002AF7D1BFF35B8F4FF4803396
:10276000C4F804330C4BBFF35B8F1B68BFF35B8F64
:10277000DB0742BF0A4B4FF40032C3F80021BDE82B
:10278000F88F00BF90090020001001400100800078
:1027900018070020FDFF7F008C090020F1240000B5
:1027A00000E100E070B5194C194BC4F80833C4F8C7
:1027B0004833184B00254FF0FF304FF0FF31C4F87D
:1027C0000855C3E902014FF48033C4F80433124BB7
:1027D00002264FF40032C4F804630121C3F88021BB
:1027E00011202A46FEF73EFD1120FEF71FFD0123B2
:1027F0000A4AA3600021236009481360FFF728FFFD
:102800003046FFF7B5F9284670BD00BF0010014003
:1028100003000F001807002000E100E090090020ED
:10282000FFFF7F00431C10B50F4C05D08442A8BFAA
:102830000446012CB8BF0124FFF77EFE0B4AD2E903
:102840000031C01AB0F5000F074A0AD22044904266
:1028500028BF1046C018BDE8104041F10001FFF745
:10286000F7BE1046F6E700BFFFFF7F0028070020F5
:1028700008B5FFF761FE024B1B68C01A08BD00BF18
:10288000280700204FF08053D3F83021082A06D1C2
:10289000D3F83431052B02D8024AD05C70470020AF
:1028A000704700BF4F750000024AD2F80034002B79
:1028B000FBD0704700E0014010B54FF08053D3F8D3
:1028C0003021082A4ED14FF080420021C2F80C116D
:1028D000C2F81011C2F8381502F54042D3F80414BA
:1028E000C2F82015D3F80814C2F82415D3F80C1434
:1028F000C2F82815D3F81014C2F82C15D3F8141404
:10290000C2F83015D3F81814C2F83415D3F81C14D3
:10291000C2F84015D3F82014C2F84415D3F8241493
:10292000C2F84815D3F82814C2F84C15D3F82C1463
:10293000C2F85015D3F83014C2F85415D3F8341433
:10294000C2F86015D3F83814C2F86415D3F83C14F3
:10295000C2F86815D3F84014C2F86C15D3F84434A3
:10296000C2F87035FFF78EFF18B13A4B3A4AC3F8F8
:102970008C26FFF787FF18B1384BFB22C3F81825C8
:10298000FFF780FF70B14FF080414FF08053D1F8D6
:10299000E42ED3F8583222F00F0203F00F03134352
:1029A000C1F8E43EFFF76EFF20B12D4B4FF40072EB
:1029B000C3F840264FF08053D3F83031082B1AD19A
:1029C0004FF08043D3F80024D20744BF6FF00102D8
:1029D000C3F800244FF08053D3F83431052B02D8CC
:1029E000204AD35C3BB14FF01023D3F808224FF0BC
:1029F0008043C3F858254FF01023D3F80022002A53
:102A000003DBD3F80432002B22DA174901234FF0FD
:102A10001020C1F804351224FFF746FFC0F8004229
:102A2000FFF742FFC0F80442FFF73EFF0023C1F862
:102A30000435FFF739FFBFF34F8F0C490C4BCA68C1
:102A400002F4E0621343CB60BFF34F8F00BFFDE79A
:102A500010BD00BF005000404881030000F000405E
:102A6000009002404975000000E0014000ED00E0E8
:102A70000400FA0530B50468CCB1BFF35B8FB4FA3B
:102A800084F3C3F11F03DBB201229A4024EA02025D
:102A900050E8005FA54204D140E8002CBCF1000FD3
:102AA000F6D1BFF35B8FE6D102480B7030BD024810
:102AB000FCE700BF0000AD0B0200AD0B10B50368D2
:102AC000CB40DB0714D401238B400268BFF35B8F3C
:102AD00043EA020150E8004F944204D140E8001C50
:102AE000BCF1000FF6D1BFF35B8FEED1014810BDF2
:102AF0000148FCE70000AD0B0400AD0B014BC3F82F
:102B00000405704700F00140F7B5044658B10128AC
:102B100030D035493548364AFB2303F048FA34486B
:102B2000FB2103F03BFA0C224FF4827302214FF099
:102B3000804003440244C0F80813002601211160BC
:102B40001E608C421B688DF8071008BF0DF1070648
:102B500042F210754FF080476CB3012C15D022491A
:102B60002248244A40F2A74303F021FA214840F2C8
:102B7000A741D6E704224FF480730146D7E783B11B
:102B8000012003F0A7FB013D0BD0D7F80C3403F470
:102B90008033002EF3D0D7F80C2402F001023270FB
:102BA000BBB9154B00225A7111E083B1012003F02B
:102BB00091FB013D0BD0D7F8183403F48033002E7D
:102BC000F3D0D7F8182402F0030232600BB903B037
:102BD000F0BD9DF80700012803D103F07BFB013D08
:102BE000BAD1012CF3D1DCE7ED6C0000B86B00002A
:102BF000557500009275000098090020044B1A7961
:102C000022B9012218609A80024870470248704732
:102C1000980900200000AD0B0C00AD0B08B50E4B61
:102C20001A795AB90D490E480E4A40F2591303F069
:102C3000BEF90C4840F2591103F0B0F91B682BB1F2
:102C40000020FEF701FB08B9FEF7F0FA4FF08043D1
:102C50000022C3F8182508BD98090020C675000099
:102C6000B86B00005575000038B5334C23795BB95B
:102C70003249334A33484FF4D47303F098F94FF490
:102C8000D4712F4803F08AF958B101284AD02E494F
:102C90002B4A2C4840F2FD1303F089F940F2FD1154
:102CA000EFE74FF08043D3F81814D3F81824C80383
:102CB00020D502F00303012B04D013B10020FFF74D
:102CC00023FF00234FF080420220C2F8183508226B
:102CD0004FF4827303F180430021196002F18042B6
:102CE0001D6801251560226802B34FF08043C3F8C8
:102CF00004030CE0D3F81424D107E2D5D3F81C2444
:102D00009207DBD422681AB10222C3F8042338BD2B
:102D1000D3F80421002AFBD00022C3F80421D3F801
:102D20000431F4E700224FF48073D3E71A68002AD5
:102D3000FCD019601B68EAE798090020C6750000FE
:102D400055750000B86B0000ED6C000008B5094B2C
:102D50001B795BB908490948094A40F2172303F077
:102D600026F9074840F2172103F018F9BDE808409A
:102D7000FFF7CABE98090020C6750000B86B0000B6
:102D800055750000F8B54FF08043214ED3F8044349
:102D90000125002704B9F8BDB4FA84F0C0F11F0082
:102DA000830003F580739BB203F1804305FA00F2C0
:102DB000196892B224EA02040029EBD01F601B6854
:102DC0004FF08043012AC3F808230DD0022A13D004
:102DD00010491148114A40F2763303F0E8F80F48E1
:102DE00040F2763103F0DAF87379002BD2D17271A8
:102DF0003368C0B29847CDE7D3F81814D3F8181445
:102E00008907F5D1C3F81855C3F804239D60C1E7BD
:102E100098090020ED6C0000B86B000055750000AB
:102E2000034A430900F01F00D35C1844C0B2704746
:102E3000D676000008B502680146104603F058FA3D
:102E400058B91149114A124840F2B93303F0AFF8AA
:102E500040F2B9310D4803F0A1F802F01F03520906
:102E60000B600BD0012A0CD00A49084A084840F2EE
:102E7000C23303F09CF840F2C231EBE74FF0A040C0
:102E800008BD0548FCE700BFA87400007574000089
:102E9000B86B0000ED6C000000030050072808B577
:102EA0000BD908490848094A40F2AA3303F07FF8D1
:102EB000064840F2AA3103F071F8800000F58070F6
:102EC00008BD00BF19760000B86B0000E475000073
:102ED00070B50546FFF7A4FF0C4C08300E4634F8D9
:102EE0001030DA0508D5C3F3432304EBC3022846A8
:102EF00054F8333052689847A3682BB1E2683146E2
:102F00002846BDE87040184770BD00BFD4040020BB
:102F100008B5FFF785FF034B083033F81000400B6E
:102F200008BD00BFD404002008B5FFF779FF034BAC
:102F3000083033F81000C0F3400008BDD40400206E
:102F400008B5FFF76DFF044B083033F8100010F0A0
:102F50001C0018BF012008BDD404002008B5FFF7ED
:102F60005FFF034B083033F81000C0F3401008BD7A
:102F7000D4040020034611F0010010B5CCB20DD1ED
:102F8000A207C4F3400012D5094AD2F820055860C0
:102F9000C2F82005003818BF012008E04FF0A0411A
:102FA000D1F820251A60C1F82025002AE8D010BDEC
:102FB0000003005010B5FFF733FF184A083032F80D
:102FC0001030D9051DD5C3F3432123F4F85322F85B
:102FD000103002F10E04002034F8023F13F4807F19
:102FE00003D0C3F3432399420BD001303028F3D1EF
:102FF00000230B4842F83130FFF760FD094B98423F
:1030000000D110BD08490948094A4FF4DC7302F0A9
:10301000CEFF07484FF4DC7102F0C0FFD40400205B
:103020004C0500200000AD0BF7740000B86B0000E9
:10303000237600002DE9F843002407460E46254676
:103040004FF00108A146B5420DD1124BD3F87C21B7
:1030500032B10022C3F87C21D3F87C3144F0004423
:103060002046BDE8F883E8B2FFF718FFA0F58072AC
:10307000920808FA02F2174209D000F1804303F5E2
:10308000C043196819B1C3F800901B681443013597
:10309000D9E700BF00600040F7B506460846FFF7D5
:1030A000BFFE194F00F108050C4637F81530DB0755
:1030B00027D5304603F095F92046FFF74FFF40B182
:1030C0002046FFF725FF316800F5A270002341F884
:1030D00020302046FFF76EFF002301A827F81530A7
:1030E0000194FFF7A7FE019B00EB8300074BD0F88C
:1030F0000027134043F00203C0F80037044803B030
:10310000F0BD0448FBE700BFD4040020F0F8FCFF4A
:103110000000AD0B0400AD0B2DE9FF4116468046C3
:103120000846FFF77DFE37680D460446E7B10846BE
:1031300003F04CF908BBCDE900008DF80E008DF8C6
:103140000F003B460DF10F020DF10E01284603F072
:10315000E1F8474A04F1080132F8113023F0020384
:1031600043F0010322F81130736863B328461F78D7
:103170005968FFF7D9FE10B1D1B13E4826E03C4A6C
:1031800004F1080032F8103023F02003DB04DB0CDC
:1031900022F8103061B1032FEFD87168496891F8B7
:1031A00000C0D8F80010A7B90CF5A27C41F82C702B
:1031B0002F4A04F1080132F8113023F01C0343EACE
:1031C000870322F81130B3684BBB2B4804B0BDE82D
:1031D000F08101EB8C0143EA4C33D1F810E52EF07D
:1031E000030EC1F810E5D8F8001001EB8C0E43F087
:1031F0002003DEF8101522F8103021F44F3121F4AD
:103200004071CEF810152902DEF8108501F47C51CA
:1032100041EA074141EA0801CEF81015C8E7D3E9B1
:1032200000672846FFF7C6FE002ECED0104DD5E928
:103230000023964203D19F4201D1002209E00F48AA
:103240000DF10F01FFF716FC0B4B9842BED19DF814
:103250000F2045F8326005EBC20308345F6035F893
:10326000143043EA422343F4807325F81430ACE76A
:10327000D40400200400AD0B0000AD0B4C05002071
:103280002DE9FF410C468046204611461E46FFF7B9
:10329000C7FD054621B32046FFF746FE18B9204674
:1032A000FFF75CFE10BB2046FFF74AFE10B14B78DB
:1032B000012B1BD001238DF80F300023CDE9001323
:1032C0004A1C8B1C20460DF10F0103F023F8274AFE
:1032D00005F1080132F8113043F0030322F81130F0
:1032E000002E41D02046FFF71FFE18B9204804B039
:1032F000BDE8F08196F800C0D8F800301B4F0CF5FF
:10330000A272002143F8221005F1080237F81210CA
:1033100021F02001C904C90C27F8121075781DB3DB
:10332000D8F80000B67800EB8C002D04D0F81035EA
:1033300023F4991323F4F853C0F81035230203F44F
:103340007C5305F440353605D0F810E52B4306F4E0
:10335000801641EA4C31334341F0200143EA0E0329
:1033600027F81210C0F810350248C0E7D404002036
:103370000400AD0B0000AD0B014BC3E90212704716
:10338000D404002010B514465AB90E490E480F4A0D
:1033900040F20D3302F00BFE0C4840F20D3102F00A
:1033A000FDFD0846FFF7DAFD50B10846FFF738FD8E
:1033B000074B083033F8103006485B0B237010BD04
:1033C0000548FCE7C1760000B86B000023760000DA
:1033D000D40400200000AD0B0400AD0B2DE9F0413A
:1033E000184D95F8804006464CBB6022214605F1F9
:1033F000100003F005F936682F6FA046A7420FD1E1
:103400000023C6F87C3146F30730D6F87C31FDF74F
:103410000DFF01230C4885F88030AB67BDE8F081D3
:10342000E0B2FFF73BFDA0F580739B081F2B08BFA0
:1034300046F8008004F1010408BF3358DEE7034872
:10344000ECE700BFD40400200000AD0B0C00AD0B76
:10345000034B93F88000003818BF0120704700BF6D
:10346000D40400200148FFF729BB00BF4805002015
:103470000148FFF7FFBA00BF480500202DE9F341DE
:10348000054608460C461646FFF75AFD58B9354919
:10349000354A364840F2FA3302F089FD40F2FA31FB
:1034A000314802F07BFD2B68D3F80423002AA4BF27
:1034B0004FF00042C3F804230846FFF74FFD18B34E
:1034C0000846FFF731FD0746F0B90846FFF720FD33
:1034D0000446FFF7E3FCD5F8008048F8007058F880
:1034E00000302B6822B203EB8203D3F8102542F0A0
:1034F0000102C3F8102526B12A680123A340C2F8AF
:10350000043302B0BDE8F0814EB91949164A174894
:1035100040F20E4302F04BFD40F20E41C0E7204660
:10352000FFF77EFC134B083033F81030C3F38203EF
:10353000042B12D0052B12D001A80194FFF77AFCBE
:10354000019BD0F81015D94001F00101023120464D
:1035500002B0BDE8F04102F02ABF0321F7E70221E3
:10356000F5E700BFA076000023760000B86B0000EE
:10357000CB760000D40400202DE9F04F694BDFF832
:10358000A881D3F80403D8F87010C0B289B040F015
:103590000040FFF74FFD051E2FDAC24600235AF800
:1035A0007C1F06A8CDE90633FFF7E4FC5F4B0193CF
:1035B0000DF118094FF0000B019A12F8013B01922E
:1035C000DA0803F007031AF8022022FA03F3DA07F5
:1035D0001CD409F10409BBF1000F14D0D8F8701005
:1035E0004FF00040FFF726FDD8F87C1006A8FFF743
:1035F000C1FC0028DAD125F000450124002D79D145
:1036000009B0BDE8F08F4FF0010BD5E7484B5B44A4
:103610000293D9F800100029DBD0029B91FAA1F1A6
:103620001C78B1FA81F141EA44142046FFF7F8FB17
:103630000830059438F81070C808BB0819F8002045
:10364000039301F00701012303FA01F122EA0102C9
:1036500009F8002005A8FFF7EDFB059A039B02F58A
:10366000E072C7F3820650F822205B073746C2F3A8
:10367000014224D539462046D6B2FFF729FC05A8D9
:103680000594FFF7D7FB059B03F5E07350F8233053
:10369000C3F301439E4207D10021204602F087FE7A
:1036A0003146204602F083FE05A80594FFF7C2FBD1
:1036B000059B012202FA03F3C0F82035A9E7022A8C
:1036C0000CD10321204602F072FE06F00503012B07
:1036D000EAD139462046FFF7FBFBE5E70221204609
:1036E000039202F064FE032EF3D0039A032ADBD187
:1036F000022EEDE795FAA5F3B3FA83F304FA03F289
:103700009B0003F1804303F5C04325EA0205D3F88B
:103710001005D3F81015C0F30520C1F30141FFF7E0
:10372000D7FB6BE700600040D4040020E676000081
:10373000E676000001460148FFF79CB958050020D5
:1037400008B5144BA8220021184602F059FF0322A5
:10375000026111494261114A8161C2614FF4806284
:103760000262002282624262C26201660C494166C4
:103770001021816603460267C2664267BFF35F8F0E
:10378000084911F8010D98540132102AF9D1BFF3FC
:103790005F8F08BD10040020E876000010000020B4
:1037A000000000200177000010B4BFF35F8F0B4AC8
:1037B0000B490023C85C12F8014D844209D1013342
:1037C000102BF7D10023BFF35F8F23B110BCFFF79D
:1037D000B7BF0123F7E710BC704700BF01770000B7
:1037E0001004002008B50A4A0A4B93420ED90A4930
:1037F0000A4A0B48192302F0DAFB0A4802F0D7FB09
:103800000648192102F0CAFB2033EEE7FCD308BDBD
:10381000BC6700003C6700002577000002770000CD
:10382000B86B00003D77000070B50446EFF31186D9
:10383000202383F31288BFF36F8F0E4B9D6802F035
:1038400014FE042C0CD10C490C4A0D48872302F0BD
:10385000AEFB0C4802F0ABFB0848872102F09EFB50
:1038600086F31188BFF36F8F2846BDE87040FDF7DF
:1038700085BC00BFA00900207E7700005C770000B7
:10388000B86B00009B77000038B50A4B53F8204016
:10389000013053F82050A54200D838BD606830B1DF
:1038A000037FDB0701D402F0E3FD0834F3E723686C
:1038B0009847FAE7FC6A000070B5394B394C3A4D2D
:1038C000012286B003201A70FFF7DEFF01F05EFFD1
:1038D00002F0E9FD0420FFF7D7FFAC42264628D9C5
:1038E0003249334A3348422302F061FB324802F046
:1038F0005EFB42212E4802F051FB54F80C3C05932C
:1039000054F8103C049354F8143C039354F8183CB6
:10391000029354F81C3C019354F8203C009354E962
:103920000A2354E90C0100F07BFB54F8303C5E653F
:10393000D3E7AE4204F13004DFD300F01FFF194C8F
:103940001E4EAC421FD91949194A1A48662302F083
:103950002EFB194802F02BFB6621CBE7D4E90A23A2
:10396000B3F1FF3F08BFB2F1FF3F05D052EA0301B8
:10397000206803D101F068F93034E2E731461830AD
:1039800001F032FCF8E7E9D300F066FF02F01DFE1B
:103990000B4A137B23F00103137306B070BD00BF05
:1039A000DF09002040690000D0690000F1770000C5
:1039B000D0770000B86B00003D7700004365000041
:1039C000B807002008B50348034A0021121A02F084
:1039D00066FD08BD98050020E409002070B50023AD
:1039E00086B00122CDE90423134E144D01930F221A
:1039F000CDE902321249142303FB005506EBC01631
:103A000004464FF4C07000FB04110E4B00954FF4B8
:103A1000A072304600F004FB737B0B4AEE6023F08B
:103A2000040373734FF4046304FB033313442C74D3
:103A30006B6006B070BD00BF38070020A0090020F1
:103A4000001F00201D3B0000C0160020BFB5002055
:103A5000FFF71AFF294B83F30888294C294F636924
:103A600043F4007363610025E02384F82230E57796
:103A700025766576A57684F82050636A43F4E023C2
:103A8000636284F82350FDF747FBFDF799FC4FF084
:103A9000FF33A362E362FDF78FFDFDF7B5FC1A4823
:103AA0001A4C00F02FFBFFF79DFE0120FFF7ECFE04
:103AB0000220FFF7E9FE00F05FFF154B15495C613E
:103AC000154B05930123CDE903534FF480623B4628
:103AD000CDE901550095204600F0A2FA627B06462A
:103AE00022F004022046627300F086FC2846FFF7AD
:103AF00075FF3A4631462046FDF744FC001F002082
:103B000000ED00E0B938000038080020B8070020B8
:103B1000A0090020802000201E78000008B50D4B71
:103B20009B6893F90E30002B09DB2024EFF31183FF
:103B300084F31288BFF36F8F02F0C9FAF6E70649E3
:103B40000648074A1C2302F032FA05481C2102F0FD
:103B500025FA00BFA009002044780000B86B0000DF
:103B60002378000008B583684BB90B490B480C4A11
:103B7000992302F01CFA0A48992102F00FFAD0E9C1
:103B8000003213605A60427B0023C0E9003322F008
:103B900002024273836008BD97780000B86B000092
:103BA0006C7800002DE9F04704469DF820600D4632
:103BB00091469A4600F10807EFF31188202383F31A
:103BC0001288BFF36F8F384601F098FA60B94B4AFC
:103BD0004B494C48882302F0EAF939464A4802F03A
:103BE000E6F9882145481BE0384601F0ABFA06B1FA
:103BF0006568EFF31183202282F31288BFF36F8F81
:103C000083F31188BFF36F8F63B94049404A3D4841
:103C1000B02302F0CCF93F4802F0C9F93C48B0218A
:103C200002F0BCF9234653F80C6F9E4215D0A6B1A2
:103C30003046FFF797FF002406F1180001F0A6FBBD
:103C40003046B467C6F8109000F0D6FB41463846BF
:103C500000F03AFD2046BDE8F087BAF1000F14D01D
:103C6000082001F08BFD00283FD00122C0F804900D
:103C70000260016801F003015DB922680A43026035
:103C8000626820606AB960600BE0C9F800A048462D
:103C9000EFE72A68032A1DD801606168A1B9C4E969
:103CA00000000024384601F037FA08BB134A1A49CD
:103CB000144840F2311302F07AF93946174802F0FD
:103CC00076F940F231118DE70A6802F003020243EF
:103CD0000A60D8E722F003020A4302602A6802F071
:103CE000030240EA02032B60DBE76FF00B04D9E725
:103CF00088F31188BFF36F8FACE700BF3E6F000001
:103D0000976F0000B86B0000AC6F0000AE78000049
:103D10006C780000C67800006B6F0000826F0000B6
:103D20002DE9F743064690461F4600F10805EFF3DC
:103D30001189202383F31288BFF36F8F284601F087
:103D4000DDF968B9244A25492548882302F02FF96E
:103D50002946244802F02BF988211F4802F01EF959
:103D6000284601F0EFF93468F4B12368726823F053
:103D7000030394422046336008BF7360012102F0C0
:103D800093FB0446284601F0C7F9E8B9124A1649E0
:103D9000134840F2311302F00AF92946134802F0A1
:103DA00006F940F23111D8E758EA0703EAD0CDE925
:103DB000008706F10C024946284600F0FFFB38B99F
:103DC0000B4B9B681C6903E089F31188BFF36F8F6D
:103DD000204603B0BDE8F0833E6F0000976F0000FF
:103DE000B86B0000AC6F00006B6F0000826F0000CA
:103DF000A009002008B583684BB90B490B480C4A51
:103E0000992302F0D4F80A48992102F0C7F8D0E9C2
:103E1000003213605A60427B0023C0E9003322F075
:103E200002024273836008BD97780000B86B0000FF
:103E30006C78000070B50446EFF31186202585F3F9
:103E40001288BFF36F8F2F4801F058F960B92E4ADE
:103E50002E492F48882302F0AAF82A492D4802F05B
:103E6000A6F88821284818E0264801F06BF9EFF3FE
:103E7000118385F31288BFF36F8F83F31188BFF32B
:103E80006F8F63B92449254A2148B02302F08FF887
:103E9000234802F08CF82148B02102F07FF8256811
:103EA000AC4212D08DB12846FFF7A4FF05F11800EF
:103EB00001F06CFA00232846AB6700F09DFA31460A
:103EC0001048BDE8704000F0FFBBD4E902329A42CE
:103ED00018BF01330B48A36001F01EF968B90A4A04
:103EE00010490B4840F2311302F061F805490E48C1
:103EF00002F05DF840F23111B4E786F31188BFF3A8
:103F00006F8F70BDC00900203E6F0000976F0000EA
:103F1000B86B0000AC6F0000AE7800006C78000059
:103F2000C67800006B6F0000826F0000F7B5044692
:103F300016461D46EFF305837BB152EA05030CD00C
:103F40002D492E4A2E48882302F031F82D4802F0E0
:103F50002EF82A48882102F021F8EFF31187202358
:103F600083F31288BFF36F8F274801F0C7F860B959
:103F7000264A27492248882302F019F82249254871
:103F800002F015F888212148E5E71F4801F0DAF82A
:103F9000A368D3B1013B1C48A36001F0BDF868B928
:103FA0001A4A1D49164840F2311302F000F816492A
:103FB0001A4801F0FCFF40F23111E4E787F3118861
:103FC000BFF36F8F002003B0F0BD56EA05030BD19D
:103FD0000D4801F0A1F80028E2D087F31188BFF363
:103FE0006F8F6FF00F00EEE7CDE90065224639468E
:103FF000054800F0E3FAE6E7E9780000C978000038
:10400000B86B0000C6780000C00900203E6F0000B9
:10401000976F0000AC6F00006B6F0000826F0000B4
:104020002DE9F04385B005460F9C0F2C0E461F4628
:1040300045D12E4B9F4246D1073222F007027F32F4
:104040001099297305F1580322F03F02C5E9163390
:10405000042100233F2AC5E90633AB606973AC73C2
:10406000EB7306F14009A2F1400805D883F31188EB
:10407000BFF36F8F084602DFB41821462846FCF7CD
:1040800085FE07300E9B20F00700A866C5E918984A
:1040900002930D9B0193241A0C9B009322463B46EE
:1040A00031462846FDF73CF900236B65104B9B68B1
:1040B00003B1DB6EEB66204605B0BDE8F08304F18A
:1040C00010031E2BB8D90B4A0B490C4840F20523AC
:1040D00001F06DFF0A4821466FF00F030E2201F038
:1040E00066FF044840F2052101F058FF1D3B000027
:1040F000A0090020377900005A790000B86B000051
:10410000DA79000040F2011310B583810023C0E981
:104110001833044601F02CFB014B9C6010BD00BF1E
:10412000A0090020094A93686FF00A0199670849BD
:1041300058674B6843F080534B60002383F311882A
:10414000BFF36F8F9368986F704700BFA00900207E
:1041500000ED00E038B590F90D20437B002A0146C0
:1041600011DA03F07F0343731B4B984209D11B49BB
:104170001B481C4A562301F01AFF1A48562101F029
:104180000DFF02F0AEF9184D2A46AB6852F8184FF1
:10419000944200D004B9EC688B4214D05BB9134947
:1041A000134A0F48D52301F002FF124801F0FFFE29
:1041B0000F48D521E3E75A7BD20604D1DA897F2A5A
:1041C00001D9A2692AB1A34202D0204600F00AFF19
:1041D00023466B6138BD00BF380700202D7A0000F0
:1041E000B86B00000B7A0000A00900207A7A00006A
:1041F0004E7A0000C678000008B583684BB90949BB
:1042000009480A4A992301F0D2FE0848992101F091
:10421000C5FE02F066F9437B23F0020343730023DB
:10422000836008BD97780000B86B00006C780000D0
:1042300070B590F90D20437B002A50DBD9064ED192
:1042400063F07F034373274B984209D126492748DF
:10425000274A4F2301F0ABFE25484F2101F09EFE77
:10426000244C2246E16952F8183F934207D1C0E935
:1042700000210860E06111E09942F8D01B68002B32
:10428000F5D090F90E5093F90E60B542F4D0AE42DD
:10429000F2DD5968C0E9003108605860A5699542AF
:1042A00000D005B9E568A3685BB91349134A0F4804
:1042B000D52301F07CFE124801F079FE0F48D5218C
:1042C000CCE75A7BD20604D1DA897F2A01D9AA69C0
:1042D00032B1AB4202D0284600F084FE656170BD69
:1042E0006361FCE7380700202D7A0000B86B0000FE
:1042F0000B7A0000A00900207A7A00004E7A0000B4
:10430000C678000070B590F90D20437B324C002A2E
:10431000014610DA03F07F03A042437309D12F490D
:104320002F4A3048562301F042FE56212C4801F016
:1043300035FE02F0D6F84B7BA14263F07F034B734E
:1043400007D12649264A27484F2301F030FE4F2146
:10435000ECE7254C2246E06952F8183F934207D11A
:10436000C1E900200160E16111E09842F8D01B68CA
:10437000002BF5D091F90E5093F90E60B542F4D0B0
:10438000AE42F2DD5868C1E9003001605960A569AC
:10439000A368954200D005B9E5688B4214D05BB99B
:1043A0001249134A0F48D52301F001FE114801F0CC
:1043B000FEFD0F48D521BAE75A7BD20604D1DA892F
:1043C0007F2A01D9AA692AB1AB4202D0284600F05F
:1043D00009FE2B46636170BD380700202D7A00006E
:1043E0000B7A0000B86B0000A00900207A7A000068
:1043F0004E7A0000C678000038B50446EFF3118508
:10440000202383F31288BFF36F8F174800F076FEE6
:1044100068B9164A16491748882301F0C8FD1249A1
:10442000154801F0C4FD8821104801F0B7FD0E4881
:1044300000F088FE2046FFF7FBFE0B4800F06CFE04
:1044400068B90A4A0D490B4840F2311301F0AFFD3B
:1044500005490B4801F0ABFD40F23111E4E785F36B
:104460001188BFF36F8F38BDC40900203E6F000074
:10447000976F0000B86B0000AC6F00006B6F00001E
:10448000826F000038B50446EFF31185202383F3D3
:104490001288BFF36F8F184800F030FE68B9174AD2
:1044A00017491848882301F082FD1349164801F086
:1044B0007EFD8821114801F071FD0F4800F042FE99
:1044C000A36813B12046FFF797FE0B4800F024FEC7
:1044D00068B90A4A0D490B4840F2311301F067FDF3
:1044E00005490B4801F063FD40F23111E2E785F325
:1044F0001188BFF36F8F38BDC40900203E6F0000E4
:10450000976F0000B86B0000AC6F00006B6F00008D
:10451000826F000038B50446EFF31185202383F342
:104520001288BFF36F8F1E4800F0E8FD68B91D4A7E
:104530001D491E48882301F03AFD19491C4801F025
:1045400036FD8821174801F029FD154800F0FAFDD5
:10455000637B13F0280F0BD1A36813B12046FFF73C
:104560004BFE637B23F0040363732046FFF760FE7A
:104570000B4800F0D1FD68B90A4A0E490B4840F2D9
:10458000311301F014FD06490B4801F010FD40F213
:104590003111D7E785F31188BFF36F8F38BD00BFA6
:1045A000C40900203E6F0000976F0000B86B000048
:1045B000AC6F00006B6F0000826F00002DE9F047C8
:1045C000DFF8D4A0354D364B1746A842DAF808205C
:1045D0001A60DDE9089804460E460BD1314932488D
:1045E000324A40F2722301F0E2FC304840F272217C
:1045F00001F0D4FCEFF31183202383F31288BFF37F
:104600006F8F284600F07AFD60B9294A294926486B
:10461000882301F0CCFC2946274801F0C8FC8821FA
:104620002348E5E7284600F08DFDDAF808503946C2
:10463000284601F05EFFB8F1FF3F08BFB9F1FF3F28
:1046400006D01E494A46434605F1180000F0CCFD4D
:10465000204600F061FD68B91949154A124840F238
:104660006B1301F0A4FC2146164801F0A0FC40F2B7
:104670006B11D5E7094800F04FFD40B910490C4ACD
:10468000094840F26B1301F092FC0449ECE7304614
:10469000BDE8F047FFF746BDA0090020C40900208F
:1046A000C8090020A17A0000B86B00000B7A000056
:1046B0003E6F0000976F0000AC6F00004365000084
:1046C0006B6F0000826F000070B504460D46F9B9AB
:1046D000EFF30586E6B91A4B5A699B689A4217D0E0
:1046E00000F01AFD78B9174A1749184840F26B13C1
:1046F00001F05DFC2146164801F059FC40F26B11B7
:10470000104801F04BFC3046BDE87040FFF70ABD91
:10471000204600F001FD68B90A4A0B490B4840F2F7
:10472000311301F044FC2146094801F040FC40F2FD
:104730003111E5E785F31188BFF36F8F70BD00BFBE
:10474000A00900203E6F00006B6F0000B86B0000F6
:10475000826F0000034648B9EFF3058232B9064A7A
:1047600051699268914201D0FFF7DCBC83F3118854
:10477000BFF36F8F704700BFA009002010B5EFF3A3
:104780001184202383F31288BFF36F8F264800F033
:10479000B5FC60B9254A26492648882301F007FC64
:1047A0002149254801F003FC8821204810E01E48DB
:1047B00000F0C8FCEFF3058363B12049204A1D488F
:1047C0008F2301F0F4FB1F4801F0F1FB8F211C48FF
:1047D00001F0E4FB1C4B9A68D37B012B0AD11B49E7
:1047E000174A1448902301F0E2FB164801F0DFFB62
:1047F0009021ECE7013BD3730B4800F08DFC68B9C6
:104800000A4A13490B4840F2311301F0D0FB064924
:10481000104801F0CCFB40F23111C6E784F3118857
:10482000BFF36F8F10BD00BFC40900203E6F0000B2
:10483000976F0000B86B0000AC6F0000DA7A0000E0
:104840006C780000C6780000A0090020EC7A000017
:104850006B6F0000826F000070B5EFF311862023AC
:1048600083F31288BFF36F8F374800F047FC60B9BD
:10487000364A37493748882301F099FB3249364890
:1048800001F095FB8821314813E0344D2E4800F0AB
:1048900059FCAB68DA7B72B93149324A2D4840F293
:1048A0000D3301F084FB304801F081FB40F20D3103
:1048B0002C4801F073FBEFF3058161B12B49294AC4
:1048C000244840F20E3301F072FB274801F06FFBE1
:1048D00040F20E31ECE70132DA732A4652F8184FF3
:1048E000944200D004B9EC685A7BD20604D1DA892C
:1048F0007F2A01D9A2692AB1A34202D0204600F042
:1049000071FB234610486B6100F006FC68B90F4A42
:104910001749104840F2311301F049FB0A49154884
:1049200001F045FB40F23111ADE786F31188BFF38A
:104930006F8FEFF31180202383F31288BFF36F8F03
:10494000BDE87040FFF706BFC40900203E6F0000BD
:10495000976F0000B86B0000AC6F0000A00900204A
:104960001D7B00000B7A0000C6780000DA7A000098
:104970006B6F0000826F0000024B03F11802C3E965
:1049800006227047A009002070B5EFF3058373B1CC
:1049900039493A4A3A4840F2244301F008FB394881
:1049A00001F005FB354840F2244101F0F7FAEFF33E
:1049B0001186202383F31288BFF36F8F324800F0F3
:1049C0009DFB60B9314A32492D48882301F0EFFA46
:1049D0002D49304801F0EBFA88212C48E5E72E4CB0
:1049E000294800F0AFFBA168E0690B68814214BF61
:1049F0001A46002249680B605960A368E1692AB928
:104A0000264AC3E900210B60E3610CE093F90E0034
:104A100092F90E50A84225D0854223DD5168C3E9A2
:104A200000210B605360A5691C4B9D4200D005B965
:104A3000E568A3689D4202D0284600F0D3FA1248E8
:104A4000656100F069FB88B9104A15490C4840F2CD
:104A50006B1301F0ACFA0C49124801F0A8FA40F2CD
:104A60006B11BAE78A42CBD01268C8E73046BDE87E
:104A70007040FFF757BB00BFDA7A00000B7A0000E6
:104A8000B86B0000C6780000C40900203E6F00002B
:104A9000976F0000AC6F0000A0090020B80900204B
:104AA0006B6F0000826F00002DE9F04105460E4655
:104AB000EFF3058474B13549354A364840F23C433A
:104AC00001F075FA344801F072FA314840F23C4185
:104AD00001F064FA51EA000304D1FFF755FF2046C4
:104AE000BDE8F081431C71F1FF331ADB01F062FD78
:104AF0004419EFF31188202383F31288BFF36F8FDB
:104B0000264800F0FBFA80B9254A26492148882327
:104B100001F04DFA2149244801F049FA8821204842
:104B2000D6E76FF00104241AE3E7204F1B4800F09A
:104B300009FB1F4BB8681860FFF70CFBB8681D49EC
:104B40002A463346183000F04FFBBA681348537BAF
:104B500043F00403537300F0DFFA68B9104A1649B2
:104B60000C4840F26B1301F022FA0C49134801F093
:104B70001EFA40F26B11D2E74046FFF7D3FA01F07C
:104B800019FD201A20EAE070AAE700BFDA7A0000D7
:104B90000B7A0000B86B0000C6780000C409002042
:104BA0003E6F0000976F0000AC6F0000A00900206E
:104BB000C8090020436500006B6F0000826F000091
:104BC00070B504460E46EFF3058575B11A491B4AC8
:104BD0001B484FF48D6301F0EAF91A4801F0E7F938
:104BE00016484FF48D6101F0D9F9FFF75DFFB6F17A
:104BF000FF3F08BFB4F1FF3F0246204616D047F6FC
:104C0000FF704FF47A7403462946C2FB0431B3F5B2
:104C1000004F71F100020AD36FF400429A4243F64A
:104C2000FF728A4105D3D80B40EA414070BD284647
:104C3000FCE76FF00040F9E7DA7A00000B7A000039
:104C4000B86B0000C678000038B50446EFF3118554
:104C5000202383F31288BFF36F8F204800F04EFAB1
:104C600068B91F4A1F492048882301F0A0F91B4951
:104C70001E4801F09CF98821194801F08FF9174866
:104C800000F060FA637B5B0710D504F1180000F0B8
:104C90007DFB637B23F0040320466373FFF7C8FAB0
:104CA00029460E48BDE83840FFF70EBD0B4800F01E
:104CB00033FA68B90A4A0E490B4840F2311301F041
:104CC00076F906490B4801F072F940F23111D3E749
:104CD00085F31188BFF36F8F38BD00BFC409002072
:104CE0003E6F0000976F0000B86B0000AC6F0000D3
:104CF0006B6F0000826F0000014B9868704700BF27
:104D0000A00900202DE9F8430446077BEFF3118545
:104D1000202383F31288BFF36F8F7B4800F0EEF9F6
:104D200068B97A4A7A497B48882301F040F9764984
:104D3000794801F03CF98821744801F02FF9724854
:104D400000F000FA637B190717D56F4800F0E4F90B
:104D500068B96E4A71496F4840F2311301F027F982
:104D600069496F4801F023F940F23111E4E785F316
:104D70001188BFF36F8FBDE8F883D90943F00802AB
:104D80007FD16273A36813B12046FFF735FA04F1AF
:104D9000180000F0FBFAA66D04F15808B04511D0D8
:104DA0004FF0000976B13046FFF726FA06F11800F9
:104DB00000F0ECFAC6F878903046FFF739FAA66DA5
:104DC000B045EFD1DFF85C81D8F808309C426DD156
:104DD000EFF30589B9F1000918BF4FF00109D8F8C0
:104DE0001860514A964200D00EB9D8F80C60B34210
:104DF00002D0304600F0F6F8C8F81460B9F1000FA0
:104E000002D04A48FFF77EF9D8F808309C4260D1BA
:104E1000EFF30586002E5CD1237BDA071FD53A48D5
:104E200000F07AF9002894D085F31188BFF36F8FD2
:104E300086F31188BFF36F8F0423184602DFEFF368
:104E40001185202383F31288BFF36F8F2E4800F063
:104E500055F900283FF465AF2B4800F073F92A4854
:104E600000F05AF928BB294A2C492A4840F26B1312
:104E700001F09DF824492A4801F099F840F26B119D
:104E80005AE703F07F0343F008036373284B9C4207
:104E900008D12849284A1F48562301F088F856218E
:104EA00025484AE7204601F01CFB6BE74FF000095C
:104EB00095E72846FFF736F920491F4A15484FF471
:104EC000DD7301F074F81E4801F071F84FF4DD71E4
:104ED000E6E70D4800F020F900283FF43AAF85F3EB
:104EE0001188BFF36F8FFB077FF545AF124A154955
:104EF000084840F23F5301F05AF82146124801F0A9
:104F000056F840F23F51CBE7C40900203E6F000045
:104F1000976F0000B86B0000AC6F00006B6F000073
:104F2000826F0000A0090020B80900203808002086
:104F3000380700202D7A00000B7A00004E7B00001D
:104F4000597B00007B7B0000867B000008B568B1C0
:104F50000F4B98420AD303F11802904206D2C01AAE
:104F60001822B0FBF2F302FB13034BB109490A48C4
:104F70000A4A382301F01BF80848382101F00EF8DE
:104F8000074BC0105843074B01221A5408BD00BFFD
:104F9000B8080020CC7B0000B86B0000A47B0000A8
:104FA000ABAAAAAAE0090020C3897F2B12D80A4B1A
:104FB0001B6863B1094B90F90E201B689A4209DB0C
:104FC000437BDB0606D1064BC31A18BF012303F04F
:104FD000010070470023FAE7D0090020CC09002027
:104FE0003807002070B50E4B0E4C1E7C06EB4603B6
:104FF00004EBC3040546204600F0C8F90A4B002222
:1050000028469A55FFF7D0FF48B1084B08491A685F
:10501000013A2046D317BDE8704000F0E5B870BDF6
:10502000A0090020B8080020E0090020D0090020D5
:105030004D4F000038B5EFF31185202383F312881C
:10504000BFF36F8F234800F059F868B9224A23490B
:105050002348882300F0ABFF1E49224800F0A7FF39
:1050600088211D4800F09AFF1A4800F06BF81E4B8B
:105070001E4A9C681068A04213D1FFF7B3FF154881
:1050800000F04AF808BB144A1949154840F2311398
:1050900000F08DFF0F49174800F089FF40F23111F1
:1050A000DFE700211B7C1160134AD35C002BE6D0A4
:1050B0002046FFF779FF0028E1D0637BDB0602D1B1
:1050C0002046FFF71FF92046D7E785F31188BFF385
:1050D0006F8F38BDC40900203E6F0000976F00003D
:1050E000B86B0000AC6F0000A0090020C8090020C8
:1050F0006B6F0000826F0000E0090020006838B18B
:10510000044B1B7C00F00300C01A18BF012070473D
:1051100001207047A0090020002302680360EFF31C
:105120000581074B19B19968497BC90706D4197CD9
:1051300098680843831A58425841704701207047C5
:10514000A0090020024B1A7C9B6813430360704740
:10515000A00900200748084A084908B5121A01F0BA
:10516000A0F90748074A0849BDE80840121A01F0AB
:1051700098B900BFC0040020980500204C7F0000B3
:10518000B8040020C0040020447F0000024B1868CF
:10519000984208BF002070475C050020034B1B6845
:1051A0000BB9FDF765BB0020704700BFD409002094
:1051B00030B570B10B4B5B6898420AD0036843B1BD
:1051C000D3E90421D0E90445121941EB0501C3E9F3
:1051D0000421D0E9003213605A600023C0E9003393
:1051E00030BD00BF5C050020B3F1FF3F08BFB2F146
:1051F000FF3F2DE9F74F044692461D469B4600F0BF
:10520000A880D0F80090B9F1000F0CD05249534A51
:105210005348712300F0CBFE524800F0C8FE4F48BF
:10522000712100F0BBFE8160EFF311830193202315
:1052300083F31288BFF36F8F4B48FFF75FFF07467A
:1052400060B94A4A4A494648882300F0B0FE4649B8
:10525000484800F0ACFE88214448E2E74248FFF7A6
:1052600071FFBAF1FF3F75F1FF3319DBFFF796FFCE
:105270001AF1010345F100051B18064645EBE075E0
:10528000C4E90435FFF782FFDFF8ECC0DCF804E086
:10529000E0B9C4E900CECEF80040CCF8044027E0E5
:1052A0003649D1E900256FF001039B1A4FF0FF3218
:1052B00062EB0505B3EB0A0365EB0B05012B75F1FA
:1052C0000002BCBF01234D460027D9E7D0E90425E1
:1052D000D4E90431934271EB05082CDAD21A436801
:1052E00065EB0105C0E90425C4E900031C604460C6
:1052F000FFF74CFF84420CD1214B1B684BB917B907
:10530000FFF74CFF0646304601F03DF90021FDF75E
:1053100089FA1548FFF700FFB0B9144A1949104837
:1053200040F2311300F043FE0F49174800F03FFEF2
:1053300040F2311190E79B1A61EB05017045C4E919
:105340000431A6D00068A3E7019B83F31188BFF363
:105350006F8F03B0BDE8F08FA17D00007D7D000060
:10536000B86B0000C6780000D80900203E6F00002E
:10537000976F0000AC6F00005C050020D008002093
:10538000D40900206B6F0000826F000070B50446E6
:10539000EFF31186202383F31288BFF36F8F214828
:1053A000FFF7ACFE68B9204A20492148882300F065
:1053B000FEFD1C491F4800F0FAFD88211A4800F044
:1053C000EDFD1848FFF7BEFE23680BB3FFF7DEFEC6
:1053D00005462046FFF7ECFEA54206D1FFF7DEFEAC
:1053E00001F0D1F80021FDF71DFA00240D48FFF768
:1053F00093FE80B90C4A10490D4840F2311300F079
:10540000D6FD08490D4800F0D2FD40F23111D5E734
:105410006FF01504EAE786F31188BFF36F8F20461B
:1054200070BD00BFD80900203E6F0000976F0000DC
:10543000B86B0000AC6F00006B6F0000826F000063
:105440002DE9F0470446EFF31188202383F31288F7
:10545000BFF36F8F4448FFF751FE68B9434A444990
:105460004448882300F0A3FD3F49434800F09FFDD6
:1054700088213E4800F092FDDFF800913A48DFF8BD
:1054800000A1FFF75FFEC9F80040FFF77FFE00268E
:1054900004460027D9F80030DAE900C0D91754B122
:1054A000D4E90452AB4271EB020E20DAED1A62EB42
:1054B0000102C4E9045213EB0C034FF0000440EB6B
:1054C00001012046CAE90031C9F8004001F05BF84B
:1054D0002146FDF7A7F92448FFF71EFEB0B188F377
:1054E0001188BFF36F8FBDE8F047FFF7A3BD15EB41
:1054F0000C0340EBE570CAE90030C4E904672046BC
:10550000FFF756FE1848FFF707FE68B9174A1D490E
:10551000184840F2311300F04AFD13491A4800F0D0
:1055200046FD40F23111A4E788F31188BFF36F8F75
:10553000A36820469847EFF31188202383F312884D
:10554000BFF36F8F0848FFF7D9FD002886D00648C3
:10555000FFF7F8FDD9F800305B1BC9F80030FFF702
:1055600015FE044696E700BFD80900203E6F0000F4
:10557000976F0000B86B0000AC6F0000D4090020EA
:10558000D00800206B6F0000826F000070B5EFF351
:105590001186202383F31288BFF36F8F1A48FFF719
:1055A000ADFD68B9194A1A491A48882300F0FFFC72
:1055B0001549194800F0FBFC8821144800F0EEFC66
:1055C0001148FFF7BFFDFFF7E9FD144AD2E9004596
:1055D000041945EBE0750C48FFF79EFD68B90B4ACE
:1055E0000F490C4840F2311300F0E1FC06490D4828
:1055F00000F0DDFC40F23111DFE786F31188BFF3E4
:105600006F8F2046294670BDD80900203E6F0000EC
:10561000976F0000B86B0000AC6F0000D00800204E
:105620006B6F0000826F00002DE9F84F4F1E0F4294
:1056300006460D469A460BD02F49304A304817236C
:1056400000F0B5FC2F4800F0B2FC17212B481CE0FD
:10565000141D4DD241F0040B00F11408EFF3118931
:10566000202383F31288BFF36F8F4046FFF746FD78
:1056700068B9254A25492248882300F098FC41460C
:10568000234800F094FC88211F4800F087FC404626
:10569000FFF758FD224659463046D047044640465B
:1056A000FFF73AFD68B9184A1A49154840F2311314
:1056B00000F07DFC4146184800F079FC40F23111C1
:1056C000E2E789F31188BFF36F8F8CB144F8046B64
:1056D0007DB13C420DD0094A10490948342300F0FD
:1056E00066FC21460E482A4600F061FC3421ADE7F5
:1056F00000242046BDE8F88FE57D0000C17D000054
:10570000B86B0000007E00003E6F0000976F000045
:10571000AC6F00006B6F0000826F00001D7E000008
:105720004F7E00002DE9F04105460E46174600F079
:10573000D2FE28B9074B9B68DC6E14B9BDE8F08136
:10574000054C3B46324629462046BDE8F041FFF76E
:105750006BBF00BFA00900206C0500200246024B71
:1057600002480021FFF760BF795F00006C05002050
:10577000014BC366704700BF6C0500200146024A1A
:105780000020FFF7CFBF00BF795F0000014800F0A5
:10579000F8BB00BF777E000038B50D4C0D4DAC4214
:1057A00013D90D490D4A0E481A2300F000FC0D488C
:1057B00000F0FDFB09481A2100F0F0FBD4E90112CA
:1057C000204600F005FF1834E9E7F7D3002038BD84
:1057D0006C050020840500201A7F0000B27E0000C6
:1057E000B86B00003D770000F8B505460E4600F1A5
:1057F0001404EFF31187202383F31288BFF36F8F14
:105800002046FFF77BFC68B91B4A1C491C488823CB
:1058100000F0CDFB21461B4800F0C9FB882116484B
:1058200000F0BCFB2046FFF78DFC28463146FAF716
:10583000D1FE05F10C0000F092FE28B13946204659
:10584000BDE8F840FEF740BF2046FFF765FC68B9A9
:10585000094A0D490A4840F2311300F0A8FB2146DD
:105860000A4800F0A4FB40F23111D8E787F3118811
:10587000BFF36F8FF8BD00BF3E6F0000976F000051
:10588000B86B0000AC6F00006B6F0000826F00000F
:105890002DE9F04F8DB043680293837815469A073F
:1058A000804640F10D8100240E78002E00F00A8120
:1058B000252E0BD04B1C03930134029B41463046EE
:1058C00098470028C0F2F6800399EDE74E788B1CCC
:1058D000252E0393F0D00027B946BB46BBF11F0F1E
:1058E00038D8A6F12003102B0AD8DFE803F02A09E4
:1058F00009300909092109090928092D09091F0089
:10590000A6F13003092B33D92A2E37D11BF0400FD3
:1059100055F8043B40F08280002BA7BF4BF0200BD2
:105920009946C3F100094BF0280B01E04BF0010B45
:10593000039B13F8016B0393002ECFD130E04BF0A3
:10594000020B4BF0040BF3E74BF0080BF0E74BF0C6
:10595000100BEDE7BBF17F0F19D8A6F13003092B2F
:10596000D2D81BF0400F03D00A2101FB0737DFE735
:105970000A2101FB09394BF0200BD9E72E2E06D165
:105980001BF0400F40F09E804BF0400BD0E76C2E98
:1059900031D02BD8682E36D06A2E3CD04C2E3AD03F
:1059A000002F46F02003B8BF2BF04002A3F16501A1
:1059B000BCBF1FFA82FB0027022901D9612B2FD11E
:1059C000073525F00705DFF8ACA2083507271BF0DF
:1059D000080F66D00AEB070B56465E4563D1A4EB71
:1059E0000A0A06EB0A02A9EB07096FE1742E9FD0A1
:1059F0007A2E9DD0D4E71BF0800F18BF4BF4007BAC
:105A00004BF0800B94E71BF4807F18BF4BF4007BB6
:105A10004BF4807B8CE74BF4207B89E71F4687E7BC
:105A2000A6F16301122900F2F080DFE811F0130003
:105A30004F00EE00EE00EE00EE004F00EE00EE0034
:105A4000EE00EE00EE00FE00E900EE00EE001B00AE
:105A5000EE00AF0055F8043B8DF8183001270DF12A
:105A6000180AB4E755F804AB834BBAF1000F08BF2E
:105A70009A461BF0400F14BF39464FF0FF31504695
:105A800000F0C6FD0746A2E7029B4146202098474A
:105A900000280FDB013EB742F6D34C44A41BB146AD
:105AA00098E74E46F7E716F8010B029B41469847E8
:105AB000002892DA98F8023043F0040388F80230A4
:105AC0004FF0FF3420460DB0BDE8F08F1BF0800F83
:105AD00034D01BF4007F2CD0073525F00705AA46EB
